:0A049E00C0F9A4B0999282F8809092
:0A04930004083EAE147B020E03E8DD
:10027400758901C2B2C2AFD2B21204A8C2B230B3FD
:10028400FDE4F512F513D2AFD28AD2AAF58CF58A21
:10029400C28DD28C7F14FE120466C28CC2AAE513EE
:1002A400640145127030E514FE7C00E42515F50D5B
:1002B400EC3EF50CFEAF0D7D02120230AC06AD072C
:1002C400EC120121AB0BAA0AA909A8081200161204
:1002D400015A8E108F11E51345127004F510F511B3
:1002E400120392C3E51194F4E51094015002C2A3E1
:1002F400C3E51194F4E51094014002D2A31203FA69
:0203040080DE99
:0300130002048460
:0F048400C2AA858C14858A157512007513013272
:03000B00020003ED
:07000300758C00758A0032C4
:0F0457007C007D0A1201DBED93F5907F057E009E
:10046600D3EF9400EE940040147D6E7C00ED1D7079
:0D047600011CED4C70F7EF1F70E61E80E3D7
:010483002256
:0604A800E4FF0FBF64FC3D
:0104AE00222B
:1003920020A1187F0A7E0012046620A10E74142583
:1003A20011F511E43510F51030A1FD20A2197F0AD4
:1003B2007E0012046620A20F74EC2511F51174FF61
:1003C2003510F51030A2FD20A02D7F0A7E00120408
:1003D2006620A023E50F25E0FFE50E33FEAC0CAD51
:1003E2000D1201DBAC06AD07E41201218F0B8E0A60
:0803F2008D098C0830A0FD22EA
:1003FA00AB11AA10C2B77C007D0AAF03AE0212018C
:10040A00DBED90049E12045FD2B77C007D0AAF0335
:10041A00AE021201DBAA06AB07C2B6120457D2B665
:10042A007C007D0AAF03AE021201DBAA06AB07C24B
:10043A00B5120457D2B57C007D0AAF03AE02120191
:0C044A00DBAA06AB07C2B4120457D2B400
:010456002283
:10001600EC4D6011E8497017ED33EC3304600DE4E4
:10002600FCFFFEFD22E933E8330470F80201C61234
:10003600019158046009E4CC248150062850090235
:1000460001D02840030201CDC0E0EB4A7044B980DC
:1000560006D0E0FB0201BCEF4E701CBD8008EBFF32
:10006600EAFEE9FD80EBE98DF0A4FEE5F00200FF73
:10007600E9CDF9EAFEEBFFEF89F0A4FCE5F0CE89C5
:10008600F0A42EFFE435F0CD89F0A42DFEE435F082
:100096008067EF4E7005BD80D780C3EF8BF0A4ACB0
:1000A600F0EE8BF0A42CFCE435F0F8EF8AF0A42CEB
:1000B600E5F038FCE433CB8DF0A42CFCE5F03BF8FE
:1000C600EE8AF0A42CFCE5F038F8E433CF89F0A4EE
:1000D6002CFCE5F038CF3400CE89F0A42FFFE5F0F4
:1000E6003EFEE433C98DF0A42EFEE5F039CD8AF04C
:1000F600A42FFFE5F03EFEE43DFD33D0E0FB5007C4
:100106000BBB000F0201D0EC2CFCEF33FFEE33FEED
:06011600ED33FD0201A81B
:10011C0075F020800E75F010800575F0087D007E5E
:10012C00007F003392D530D503120266EC334010B9
:10013C00EF33FFEE33FEED33FDEC33FCD5F0ED2267
:0E014C00E5F0247EA2D513CC92E7CDCEFF22A3
:10015A00EDD2E7CD33EC3392D524814006E4FFFE9D
:10016A00FDFC22FCE4CFCECDCC24E0501174FF80FC
:10017A00EDC3CC13CCCD13CDCE13CECF13CF047099
:07018A00F030D5DE02026631
:10019100E9D2E7C933E833F892D5EDD2E7CD33ECB4
:0701A10033FC5002B2D5222D
:1001A800EC30E7100FBF000C0EBE00080DBD0004B8
:1001B8000BEB6014A2D5EB13FCED92E7FD2274FF64
:1001C800FCFDFEFF22E480F8A2D574FF13FC7D80BD
:0301D800E480EFD1
:03000000020306F2
:0C030600787FE4F6D8FD75811502034DE8
:1001DB00BC000BBE0029EF8DF084FFADF022E4CC08
:1001EB00F875F008EF2FFFEE33FEEC33FCEE9DECD1
:1001FB00984005FCEE9DFE0FD5F0E9E4CEFD22ED17
:10020B00F8F5F0EE8420D21CFEADF075F008EF2F60
:10021B00FFED33FD4007985006D5F0F222C398FD51
:05022B000FD5F0EA22EE
:10023000C2D5EC30E709B2D5E4C39DFDE49CFCEEE9
:1002400030E715B2D5E4C39FFFE49EFE1201DBC385
:10025000E49DFDE49CFC80031201DB30D507C3E480
:060260009FFFE49EFE2258
:0E026600C3E49FFFE49EFEE49DFDE49CFC22A9
:10031200020274E493A3F8E493A34003F68001F28B
:1003220008DFF48029E493A3F85407240CC8C333EC
:10033200C4540F4420C8834004F456800146F6DFBB
:10034200E4800B0102040810204080900493E47EB4
:10035200019360BCA3FF543F30E509541FFEE493B0
:10036200A360010ECF54C025E060A840B8E493A377
:10037200FAE493A3F8E493A3C8C582C8CAC583CAA2
:10038200F0A3C8C582C8CAC583CADFE9DEE780BE5A
:01049D00005E
:00000001FF
